:020000040800F2
:10000000000008247D390108950E0008970E0008AD
:10001000990E00089B0E00089D0E000800000000CD
:100020000000000000000000000000009F0E00081B
:10003000A10E000800000000A30E0008A50E000895
:10004000D1390108D1390108D1390108D139010864
:10005000D1390108D1390108D1390108D139010854
:10006000D1390108D1390108D1390108AD0E000894
:10007000BD0E0008CD0E0008DD0E0008ED0E0008D4
:10008000FD0E0008D1390108D1390108D139010824
:10009000D1390108D1390108D1390108D139010814
:1000A000D1390108D1390108D1390108D139010804
:1000B000D1390108D1390108D13901080D0F0008E3
:1000C0001D0F00082D0F00083D0F00084D0F000800
:1000D000D1390108D1390108D1390108D1390108D4
:1000E000D1390108D139010800000000D1390108D7
:1000F000D1390108D1390108D1390108D1390108B4
:10010000D1390108D1390108D1390108D1390108A3
:10011000D1390108D1390108D1390108D139010893
:10012000D1390108D1390108D1390108D139010883
:10013000D1390108D1390108D1390108D139010873
:1001400000000000000000000000000000000000AF
:10015000D1390108D1390108D1390108D139010853
:100160005D0F00086D0F0008D1390108D139010871
:10017000D1390108D1390108D13901080000000046
:10018000D1390108D1390108D1390108D139010823
:10019000D1390108D1390108D1390108D139010813
:1001A000D1390108D1390108D1390108D139010803
:1001B000D1390108D1390108D1390108D1390108F3
:1001C000D1390108D1390108D1390108D1390108E3
:1001D000D13901087D0F0008D1390108D139010852
:1001E000D1390108D1390108D1390108D1390108C3
:1001F000D1390108D1390108D1390108D1390108B3
:10020000D1390108D1390108D1390108D1390108A2
:10021000D1390108D1390108D1390108D139010892
:10022000D1390108D1390108D13901080000000095
:10023000D1390108D139010800000000D139010885
:10024000D1390108D1390108D1390108D139010862
:10025000D1390108D1390108D1390108D139010852
:10026000D1390108D1390108D1390108D139010842
:10027000D1390108D1390108D13901080000000045
:10028000D1390108D1390108D13901080000000035
:0802900000000000D139010853
:1002980010B5054C237833B9044B13B10448AFF3B8
:1002A80000800123237010BD0C0100240000000011
:1002B8002C3A010808B5034B1BB103490348AFF3B7
:1002C800008008BD00000000100100242C3A01083D
:1002D80030B585B00024009401940294039408F08A
:1002E80017FF01238DF800308DF8014001941F227B
:1002F8008DF8082087228DF809208DF80A408DF89E
:100308000B408DF80C308DF80D308DF80E408DF8BF
:100318000F40684608F032FF042008F007FF05B0D8
:1003280030BD72B6FEE700B59DB04C22002109A889
:1003380013F04BFB2022002101A813F046FB0220FA
:1003480008F0D8FA00230093254BDA6A22F001025C
:10035800DA62DB6A03F001030093224A936923F40B
:10036800404343F480439361936903F4404300930B
:10037800009B1C4B9B6913F4005FFAD0012309937F
:100388004FF480330A930223129313930522149295
:100398003021159116931792189308231993002367
:1003A8001A931B9309A803F07BF9A0B93F23019383
:1003B8000323029300230393049305935022069288
:1003C8004FF4A06207920893022101A803F01EFED1
:1003D80018B91DB000BDFFF7A4FFFFF7A2FF00BFCB
:1003E800000400580048025808B5FFF771FF08F0EC
:1003F800C7FFFFF798FF00F00FF800F095F800F03E
:10040800D7F800F001F900F00BFC00F0A5FC00F0B3
:10041800CBFD00F029F9FEE72DE9F0418AB005ADE2
:100428000024059406940794089409943A4BD3F849
:10043800E02042F00402C3F8E020D3F8E02002F004
:1004480004020192019AD3F8E02042F08002C3F836
:10045800E020D3F8E02002F080020292029AD3F85A
:10046800E02042F00102C3F8E020D3F8E02002F0D7
:1004780001020392039AD3F8E02042F00202C3F883
:10048800E020D3F8E03003F002030493049B234EEA
:10049800012240F20511304606F053F922460221A6
:1004A800304606F04EF91E4F224641F28101384689
:1004B80006F047F94FF4005305930694079429462C
:1004C800304605F079FF40F2071305934FF0010815
:1004D800CDF81880079408942946304605F06CFF3B
:1004E8000F2305930694079429460E4805F064FFE8
:1004F80041F281030593CDF81880079408942946A2
:10050800384605F059FF21464FF0806009F026F87B
:100518000AB0BDE8F08100BF004402580008025844
:10052800000402580000025800B583B01F4BD3F8EE
:10053800D82042F00102C3F8D820D3F8D83003F00D
:1005480001030193019B002211460B2008F0B0FD26
:100558000B2008F0BDFD002211460C2008F0A8FD74
:100568000C2008F0B5FD002211460D2008F0A0FD72
:100578000D2008F0ADFD002211460E2008F098FD70
:100588000E2008F0A5FD002211460F2008F090FD6E
:100598000F2008F09DFD00221146102008F088FD6C
:1005A800102008F095FD03B000BD00BF00440258BC
:1005B80008B51248124B0360124B43600023836056
:1005C8000122C260036143618361C361036209F070
:1005D800F0FB50B9002109480CF00AFF40B900218E
:1005E80006480CF032FF30B908BDFFF79AFEF1E774
:1005F800FFF797FEF3E7FFF794FEF5E728010024DD
:1006080000540040AF74700008B51348134B43659D
:10061800134B83650023C365012202664366836624
:10062800C36603674367543009F0C3FB50B9002120
:100638000C480CF0DDFE40B900210A480CF005FF1B
:1006480030B908BDFFF76DFEF1E7FFF76AFEF3E783
:10065800FFF767FEF5E700BF2801002400580040B7
:10066800AF7470007C01002408B51748174BC0F818
:10067800A830174BC0F8AC300023C0F8B0300122C6
:10068800C0F8B420C0F8B830C0F8BC30C0F8C030EA
:10069800C0F8C430C0F8C830A83009F08AFB50B997
:1006A80000210C480CF0A4FE40B9002109480CF0C8
:1006B800CCFE30B908BDFFF734FEF1E7FFF731FE95
:1006C800F3E7FFF72EFEF5E728010024005C004061
:1006D800AF747000D00100242DE9F047BEB0044685
:1006E800002139913A913B913C913D91C02208A853
:1006F80013F06BF92368A04A93420AD09F4A9342A9
:1007080000F0A0809E4A934200F04A813EB0BDE8C6
:10071800F08708220023CDE9082308A803F0F4FF96
:10072800002840F08680974ED6F8E03043F0020368
:10073800C6F8E030D6F8E03003F002030193019BDD
:100748004FF44073399312233A9300253B950323C2
:100758003C9304233D9339A98B4805F02DFED6F828
:10076800E83043F40013C6F8E830D6F8E83003F46C
:1007780000130293029B8548854BC0F8FC30212367
:10078800C0F80031C0F80451C0F808514FF4806334
:10079800C0F80C31C0F81051C0F81451C0F8185105
:1007A8004FF40033C0F81C31C0F82051FC3006F07B
:1007B8000FFA002840D1754800F1FC03E363C0F844
:1007C8003441744BC0F874312223C0F87831402387
:1007D800C0F87C310023C0F880314FF48062C0F843
:1007E8008421C0F88831C0F88C31C0F890314FF4BA
:1007F8000032C0F89421C0F8983100F5BA7006F0BC
:10080800E7F9E0B9614B03F5BA72A263C3F8AC41EA
:10081800002211461F2008F04BFC1F2008F058FC4E
:1008280000221146202008F043FC202008F050FC4C
:100838006CE7FFF776FD76E7FFF773FDBBE7FFF799
:1008480070FDDFE708220023CDE9082308A803F09C
:100858005BFF002840F087804A4ED6F8E03043F02E
:100868000203C6F8E030D6F8E03003F00203039341
:10087800039B4FF44063399312233A9300253B9529
:1008880003233C9304233D9339A93F4805F094FD85
:10089800D6F8E83043F48003C6F8E830D6F8E830F4
:1008A80003F480030493049B38483B4BC0F8EC31B5
:1008B8002323C0F8F031C0F8F451C0F8F8514FF4D0
:1008C8008063C0F8FC31C0F80052C0F80452C0F888
:1008D80008524FF40033C0F80C32C0F8105200F53B
:1008E800F67006F075F9002840D1284800F5F6732F
:1008F800E363C0F82442294BC0F864322423C0F8CB
:1009080068324023C0F86C320023C0F870324FF4CC
:100918008062C0F87422C0F87832C0F87C32C0F81F
:1009280080324FF40032C0F88422C0F8883200F5D3
:10093800197006F04DF9E0B9144B03F51972A2636A
:10094800C3F89C4200221146212008F0B1FB212067
:1009580008F0BEFB00221146222008F0A9FB222045
:1009680008F0B6FBD2E6FFF7DCFC75E7FFF7D9FC29
:10097800BBE7FFF7D6FCDFE7005400400058004013
:10098800005C00400044025800040258280100247A
:100998001000024028000240400002405800024077
:1009A80008220023CDE9082308A803F0ADFE00289B
:1009B80040F0A880584DD5F8E03043F00403C5F85E
:1009C800E030D5F8E03003F004030593059BD5F833
:1009D800E03043F00103C5F8E030D5F8E03003F02B
:1009E80001030693069B4FF4007339934FF0120AE4
:1009F800CDF8E8A000263B964FF00309CDF8F0901B
:100A08004FF00408CDF8F48039AF3946434805F073
:100A1800D3FC4FF480733993CDF8E8A03B96CDF81A
:100A2800F090CDF8F48039463D4805F0C5FCD5F87E
:100A3800E83043F40003C5F8E830D5F8E83003F4AB
:100A480000030793079B3748374BC0F8DC3249232C
:100A5800C0F8E032C0F8E462C0F8E8624FF480639E
:100A6800C0F8EC32C0F8F062C0F8F462C0F8F8627E
:100A78004FF40033C0F8FC32C0F8006300F537705B
:100A880006F0A6F8002840D1264800F53773E3633E
:100A9800C0F81443254BC0F854334A23C0F85833E0
:100AA8004023C0F85C330023C0F860334FF4806201
:100AB800C0F86423C0F86833C0F86C33C0F87033EA
:100AC8004FF40032C0F87423C0F8783300F555703D
:100AD80006F07EF8E0B9134B03F55572A263C3F82C
:100AE8008C4300221146482008F0E2FA482008F01A
:100AF800EFFA00221146492008F0DAFA492008F0F6
:100B0800E7FA03E6FFF70DFC54E7FFF70AFCBBE73B
:100B1800FFF707FCDFE700BF00440258000802584F
:100B2800000002582801002470000240880002409A
:100B380038B504460368334A934206D0324A934292
:100B480022D0324A93423ED038BD314AD2F8E830FA
:100B580023F40013C2F8E8302E4D4FF48071284674
:100B680005F040FD4FF40071284605F03BFDE06BB1
:100B780006F000FAA06B06F0FDF91F2008F0ACFAA9
:100B8800202008F0A9FADFE7214AD2F8E83023F458
:100B98008003C2F8E8301F4D4FF48061284605F005
:100BA80021FD4FF40061284605F01CFDE06B06F0BE
:100BB800E1F9A06B06F0DEF9212008F08DFA222079
:100BC80008F08AFAC0E7124AD2F8E83023F40003A2
:100BD800C2F8E8304FF400710F4805F003FD4FF4F8
:100BE80080710E4805F0FEFCE06B06F0C3F9A06BBF
:100BF80006F0C0F9482008F06FFA492008F06CFAAE
:100C0800A2E700BF0054004000580040005C0040CC
:100C18000044025800040258000802580000025814
:100C280008B51248124B03604FF480034360002359
:100C380083600722C260036143614FF08062826172
:100C4800C361036243628362C36243638363C363B2
:100C5800036443648364C3640365436583650CF07C
:100C680006FE00B908BDFFF75CFBFBE7F4040024AF
:100C78000030014010B5B8B00446002133913491DA
:100C8800359136913791C02202A812F09EFE226853
:100C9800204B9A4201D038B010BD4FF48052002347
:100CA800CDE9022302A803F02FFD78BB1A4BD3F835
:100CB800F02042F48052C3F8F020D3F8F02002F478
:100CC80080520092009AD3F8E02042F00102C3F863
:100CD800E020D3F8E03003F001030193019BE02307
:100CE8003393022334930024359403233693052346
:100CF800379333A9094805F05FFB22462146232094
:100D080008F0D6F9232008F0E3F9C4E7FFF709FB58
:100D1800CCE700BF003001400044025800000258F0
:100D280008B50268094B9A4200D008BD084AD2F8B3
:100D3800F03023F48053C2F8F030E021054805F084
:100D480051FC232008F0C8F9EFE700BF003001404C
:100D5800004402580000025808B51748174B0360B2
:100D68004FF4E133436000238360C36003610C22C6
:100D780042618361C36103624362836210F01DFDB7
:100D880070B900210C4811F0DDF860B900210A485B
:100D980011F0FDF850B9084811F0B5F848B908BD88
:100DA800FFF7BFFAEDE7FFF7BCFAEFE7FFF7B9FA8D
:100DB800F1E7FFF7B6FAF2E77C05002400100140DE
:100DC80010B5B8B00446002133913491359136916D
:100DD8003791C02202A812F0F8FD22681B4B9A42F4
:100DE80001D038B010BD01220023CDE9022302A8AA
:100DF80003F08AFC38BB164BD3F8F02042F01002FF
:100E0800C3F8F020D3F8F02002F010020092009A04
:100E1800D3F8E02042F00102C3F8E020D3F8E03034
:100E280003F001030193019B4FF4C0633393022342
:100E380034930023359336930723379333A9054812
:100E480005F0BAFACDE7FFF76CFAD4E700100140D5
:100E5800004402580000025808B50268084B9A423C
:100E680000D008BD074AD2F8F03023F01003C2F8CA
:100E7800F0304FF4C061044805F0B4FBF1E700BF5F
:100E8800001001400044025800000258FEE7FEE747
:100E9800FEE7FEE7FEE770477047704708B508F0C1
:100EA8009DFA08BD08B5024807F00EF808BD00BF56
:100EB8002402002408B5024807F006F808BD00BF60
:100EC8009C02002408B5024806F0FEFF08BD00BFDA
:100ED8001403002408B5024806F0F6FF08BD00BF59
:100EE8008C03002408B5024806F0EEFF08BD00BFD9
:100EF8000404002408B5024806F0E6FF08BD00BF58
:100F08007C04002408B502480BF078F808BD00BF3F
:100F18002801002408B502480CF020FA08BD00BFDB
:100F28002801002408B502480BF068F808BD00BF86
:100F38007C01002408B502480CF010FA08BD00BF77
:100F48007C01002408B502480EF0A3F908BD00BFD3
:100F5800F404002408B502480BF050F808BD00BF9F
:100F6800D001002408B502480CF0F8F908BD00BF0C
:100F7800D001002408B5024800F075FE08BD00BF86
:100F8800EC08002482B0074BD3F8F42042F00202A8
:100F9800C3F8F420D3F8F43003F002030193019B63
:100FA80002B070470044025808B5002210491148A1
:100FB80011F012F980B910490E4811F03DF970B9D5
:100FC8000E490C4812F055F960B90A4811F054F965
:100FD80058B907F0DFFE08BDFFF7A3F9EBE7FFF705
:100FE800A0F9EDE7FFF79DF9EFE7FFF79AF9F0E7CA
:100FF8004000002410060024CC00002460000024D7
:1010080030B5B9B004460021339134913591369109
:101018003791C02202A812F0D8FC2268224B9A42CB
:1010280001D039B030BD4FF480220023CDE902232E
:101038004FF48013249302A803F066FB88BB07F0E3
:10104800A9FE1A4CD4F8E03043F00103C4F8E030AC
:10105800D4F8E03003F001030093009B4FF4C05331
:101068003393022334930025359536930A23379317
:1010780033A90F4805F0A0F9D4F8D83043F000633D
:10108800C4F8D830D4F8D83003F000630193019B3A
:101098002A462946652008F00BF8652008F018F85C
:1010A800BFE7FFF73EF9CAE70000084000440258CE
:1010B8000000025808B50268094B9A4200D008BDE2
:1010C800084AD2F8D83023F00063C2F8D8304FF479
:1010D800C051054805F086FA652007F0FDFFEEE7E8
:1010E80000000840004402580000025808B500F209
:1010F8009C41D0F8E00411F0E4F808BD08B501EB14
:10110800C10300EB8303D3F86022D0F8E00411F0A8
:10111800A6F908BD08B501EBC10300EB83031A6A01
:10112800D0F8E00411F0FEF908BD08B5D0F8E004E5
:1011380011F043F908BD10B50446C17911B102296F
:1011480009D10121D4F8E00411F01AF9D4F8E00427
:1011580011F0E3F810BDFFF7E4F80121F2E710B54C
:101168000446D0F8E00411F00EF92268D2F8003EE7
:1011780043F00103C2F8003EE37A23B1024A13693F
:1011880043F00603136110BD00ED00E008B5D0F888
:10119800E00411F006F908BD08B5D0F8E00411F034
:1011A80032F908BD08B5D0F8E00411F016F908BD09
:1011B80008B5D0F8E00411F03CF908BD08B5D0F83E
:1011C800E00411F038F908BD02780AB10020704730
:1011D80010B503461548C0F8E034C3F8C802144BEC
:1011E8000360092303710222C271002383714272D2
:1011F8008372C372037343738373C37300F0E3F999
:1012080080B90A4C8021204601F098F8402200213C
:10121800204601F06DF880220121204601F068F88F
:10122800002010BDFFF77DF8EBE700BFEC080024B5
:1012380000000840D0F8C83211F0800F08D101F042
:101248007F0101EBC10103EB810393F8560270475C
:1012580001F07F0101EBC10103EB8103987D704729
:1012680008B5D0F8C80200F039FC08BD004870473E
:10127800D00D0024704708B508F0E0F808BD032831
:1012880005D8DFE800F005040205012070470320B7
:10129800704708B5D0F8C80200F017FAFFF7EFFF5B
:1012A80008BD08B5D0F8C80200F026FAFFF7E7FF36
:1012B80008BD08B5D0F8C80200F040FAFFF7DFFF14
:1012C80008BD08B594461A466346D0F8C80200F02F
:1012D80062FBFFF7D4FF08BD08B5D0F8C80200F0DC
:1012E800A0FBFFF7CCFF08BD08B5D0F8C80200F096
:1012F800C4FFFFF7C4FF08BD08B5D0F8C80200F066
:101308001BFCFFF7BCFF08BD08B5D0F8C80200F009
:1013180056FCFFF7B4FF08BD08B5D0F8C80200F0C6
:1013280027FBFFF7ACFF08BD08B5D0F8C80200F0EE
:10133800DEFBFFF7A4FF08BD08B5D0F8C80200F02F
:10134800A8FBFFF79CFF08BD12230B8000487047DD
:101358000000002404230B80004870471400002478
:10136800002393421DD200B510E00CF1370C01F8B0
:1013780013C000014FEA430C0CF1010C4FF0000EB2
:1013880001F80CE00133DBB2934209D24FEA107C3A
:10139800B0F1204FE9D20CF1300C01F813C0E8E7A6
:1013A80000BD704738B50B4BD3F80008D3F8044894
:1013B800D3F80838C01800D138BD074D082205F108
:1013C8001A01FFF7CDFF042205F12A012046FFF795
:1013D800C7FFF1E700E0F11F0000002408B51A2359
:1013E8000B80FFF7DFFF014808BD00BF180000248D
:1013F80008B50A4628B90549054811F0AEFC034866
:1014080008BD0249024811F0A8FCF8E7F00F0024D3
:10141800843A010810B50A46034C2146034811F0E6
:101428009CFC204610BD00BFF00F00249C3A010828
:1014380008B50A4628B90549054811F08EFC034845
:1014480008BD0249024811F088FCF8E7F00F0024B3
:10145800B03A010808B50A4628B90549054811F007
:101468007CFC034808BD0249024811F076FCF8E705
:10147800F00F0024BC3A0108002070470020704794
:101488000020704710B50146044C204611F00AFFB1
:10149800204611F02EFF002010BD00BF10060024CA
:1014A80038B5074D074C00222946204611F0ECFEBE
:1014B80005F50061204611F0F5FE002038BD00BF9B
:1014C800F011002410060024094BD3F8BC32D3F8DD
:1014D80014320BB10120704710B5054C0A4601467D
:1014E800204611F0D1FE204611F0E8FE10BD00BFE5
:1014F800100600242DE9F04383B0D0F8008001EBFA
:10150800C10300EB83039A6A5B6A9A4254D8074680
:101518000C469B1A01EBC10200EB8202D2699A4287
:1015280000D31A4602F103094FEA990915E006F1BA
:1015380003094FEA990904EBC40507EB8505296AF5
:10154800BB790093B3B2E2B2404601F01FFC2B6AAC
:1015580033442B62AB6A3344AB6208EB441303F5A4
:1015680010639B699BB24B4512D304EBC40307EB92
:1015780083039A6A5B6A9A420AD24BB19B1A04EBBC
:10158800C40207EB8202D6699E42D0D31E46CEE73C
:1015980004EBC40307EB83077A6ABB6A9A420FD845
:1015A80004F00F040122A240D8F8343823EA0203D9
:1015B800C8F83438002000E0012003B0BDE8F0830B
:1015C8000020FAE7704730B583B000287AD0044687
:1015D80090F89534ABB1032384F89534206801F072
:1015E80055F8237C8DF80030231D0ECB206800F0C1
:1015F8007FFF58B1022384F895340125284603B0AB
:1016080030BD80F89434FFF7FBFCE4E70021206844
:1016180001F0A3FD0246B8B903462079984218D9CB
:1016280003EBC30104EB8101012048750B75CB85E1
:1016380000200876C861086203EBC30104EB81014E
:1016480048620133DBB2E8E7022384F895340125C8
:10165800D4E7904217D902EBC20304EB83030021BD
:1016680083F8551283F8542283F85812C3F85C1291
:10167800C3F8601202EBC20304EB8303C3F86412DD
:101688000132D2B2E5E7237C8DF80030231D0ECB62
:10169800206801F050F8054658B900236374012307
:1016A80084F89534237B012B08D0206801F007FDCE
:1016B800A4E7022384F8953401259FE7204600F02B
:1016C80041FEF2E7012599E7704738B590B1044625
:1016D800032380F89534006801F0B3FC054610B187
:1016E8000125284638BD2046FFF7E4FC002384F88E
:1016F8009534F6E70125F4E7036890F89424012A65
:101708001AD010B50446012280F89424DA6812F041
:10171800400F02D0427B012A09D0206800F0B0FFB8
:10172800206801F0BEFC002084F8940410BD9A6B78
:1017380042F480329A63F0E70220704738B50568B2
:1017480090F89434012B1DD00446012380F894347A
:10175800284600F09BFF206801F0B1FC10212068AA
:1017680000F09AFFEB6813F0400F02D0637B012B67
:1017780003D0002084F8940438BDAB6B23F4803385
:10178800AB63F6E70220F7E7704770B504460D46ED
:101798000068066C00EB411303F530639A68A17981
:1017A800012911D038498E4256D03DB905EBC50301
:1017B80004EB8303D3F86432002B5ED0E9B22046F1
:1017C800FFF79CFC002070BD12F0080F09D02F49CC
:1017D8008E42F7D912F4004FF4D04FF400429A60C9
:1017E800F0E712F0200F02D020229A60EAE712F008
:1017F800280FE7D125498E4206D912F4004F03D0AD
:101808004FF400429A60DDE705EBC50204EB820263
:10181800D2F874121B69C3F31203CB1AC2F86832E8
:101828007DB905EBC50204EB8202D2F864226AB1E5
:1018380005EBC50204EB8202D2F860121944C2F823
:101848006012E9B22046FFF759FCBBE704F29C425C
:10185800012101F0C1FCF4E712F4004F03D04FF46A
:1018680000429A60AEE712F0200F01D020229A6061
:10187800E9B22046FFF742FCA4E704F29C420021AB
:1018880001F0AAFC9AE700BF0A31544F0A30544FBE
:101898007047704738B5044603681D6C03EB411365
:1018A800D3F8081B0E4A954207D903F5306311F4A3
:1018B800004F02D04FF400429A602046FFF716FC12
:1018C800074B9D4202D9A379012B01D0002038BDD6
:1018D80004F29C420121206801F07EFCF6E700BF7B
:1018E8000A30544F704770477047704770477047C9
:1018F80070477047036890F89424012A17D010B5F0
:101908000446012280F89424DA6812F0400F02D0CD
:10191800427B012A06D0206801F0C3FB002084F82E
:10192800940410BD9A6B42F480329A63F3E7022064
:10193800704738B5056890F89434012B16D00446E2
:10194800012380F89434284601F0B9FBEB6813F0C2
:10195800400F02D0637B012B03D0002084F894044D
:1019680038BDAB6B23F48033AB63F6E70220F7E7AF
:1019780090F89434012B0CD010B50446012380F85C
:1019880094344174006801F07CFB002084F89404CE
:1019980010BD0220704738B505468C4611F0800FFF
:1019A8002BD101F00F0E0EEBCE04A40004F5147435
:1019B8000444211D0EEBCE0E00EB8E0E00208EF897
:1019C80055020CF00F0C81F800C0C2F30A028A60BD
:1019D8000B714A780AB1A1F81AC0022B1CD095F8ED
:1019E8009434012B1BD0012385F89434286800F027
:1019F8007AFF002085F8940438BD01F00F0000EB51
:101A0800C001890010312944043100EBC00005EB06
:101A1800800001244475D4E700234B71DFE70220DE
:101A2800EAE710B504460A4611F0800F20D101F00C
:101A38000F0000EBC0039B0003F514732344191D2A
:101A480000EBC00004EB8000002380F8553202F060
:101A58000F020A7094F89434012B18D0012384F8EB
:101A68009434206800F0DAFF002084F8940410BD54
:101A780001F00F0000EBC0039B0010332344191D35
:101A880000EBC00004EB800001234375DFE7022070
:101A9800EDE710B5144601F00F0C0CEBCC018900F2
:101AA80001F51471014404310CEBCC0E00EB8E0EE1
:101AB800CEF86022CEF864320023CEF868328EF871
:101AC80055328EF854C28279012A04D0006801F098
:101AD80074F9002010BDCEF87042F7E701F00F014D
:101AE80001EBC10100EB8100D0F86802704710B526
:101AF800144601F00F0C0CEBCC01890010310144A5
:101B080004310CEBCC0E00EB8E0ECEF82020CEF874
:101B180024300023CEF8283001238EF815308EF8B3
:101B280014C082799A4204D0006801F046F9002076
:101B380010BDCEF83040F7E738B501F00F0502794F
:101B4800AA4238D304460B4611F0800F1FD101EB8F
:101B5800C101890001F514710144043103EBC30389
:101B680000EB8303002283F8552201238B700D704C
:101B780094F89434012B20D0012384F894342068FD
:101B880001F0A9F885B1002084F8940438BD05EB6C
:101B9800C501890010310144043105EBC50300EB90
:101BA800830301225A75E0E704F29C42A179206878
:101BB80001F012FBE7E70120E8E70220E6E701F081
:101BC8000F0302799A4230D310B5044611F0800F02
:101BD8001ED103EBC301890001F5147101440431DE
:101BE80003EBC30200EB8202002082F855020022B8
:101BF8008A700B7094F89434012B18D0012384F860
:101C08009434206801F094F8002084F8940410BDFE
:101C180003EBC301890010310144043103EBC30213
:101C280000EB820201205075E1E701207047022095
:101C3800EDE708B511F0800F0CD101F00F0101EBB1
:101C4800C101890001F5147101440431006800F0F4
:101C5800A5FF08BD01F00F0101EBC101890010319A
:101C680001440431F2E72DE9F04F83B004460568DA
:101C7800284601F06EFA10B103B0BDE8F08F0646B1
:101C8800206801F02AFA0028F6D005F50067BB683D
:101C9800C3F30D23C4F8D434206801F01EFA10F001
:101CA800020F04D02268536903F0020353612068CD
:101CB80001F013FA10F0100F16D02268936923F080
:101CC80010039361D5F8208008F00F0908F4F01389
:101CD800B3F5802F6AD0B3F5402F00F08D802268CD
:101CE800936943F010039361206801F0F6F910F44A
:101CF800002F40F09380206801F0EFF910F4802F56
:101D080040F0FC80206801F0E8F90028C0F27D81ED
:101D1800206801F0E2F910F4006F09D0BB6813F0F5
:101D2800010F40F08A812268536903F4006353610C
:101D3800206801F0D2F910F0006F15D022685369BD
:101D480003F00063536194F8CC34002B40F07981A0
:101D5800012184F8CC1423685B6DC3F38303C4F8B2
:101D6800D034204600F03AFB206801F0B6F910F4B0
:101D7800805F40F06A81206801F0AFF910F4005FDD
:101D880040F0B681206801F0A8F910F0080F40F083
:101D9800C781206801F0A1F910F0800F00F0E481FC
:101DA800AB6923F08003AB610123C3E147F6F0730D
:101DB80018EA030F93D04FEA181A4FEAC9030193A0
:101DC80009EBC90B04EB8B0BC8F30A12DBF86012A2
:101DD800284601F013F9DBF86032CAF30A0A5344C3
:101DE800CBF86032DBF86832019A4A4404EB82028D
:101DF8005344C2F8683272E7082204F29C4128462C
:101E080001F0FCF809EBC90304EB8303D3F868225B
:101E1800C8F30A184244C3F8682260E7206801F052
:101E280069F98046B14635E005EB49130122C3F84C
:101E3800082B49462046FFF7A8FC3CE005EB491370
:101E48000822C3F8082B49462046FFF723FD35E052
:101E580009EBC90304EB830393F85732012B41D0F4
:101E680005EB49130222C3F8082B1AF0200F04D0FF
:101E780005EB49132022C3F8082B1AF4005F05D09C
:101E880005EB49134FF40052C3F8082B09F1010977
:101E98004FEA5808B8F1000F3FF42DAF18F0010FC2
:101EA800F4D05FFA89FB5946206801F033F982467D
:101EB80010F0010FB8D11AF0080FBFD11AF0100FA7
:101EC80004D005EB49131022C3F8082B1AF0020FAF
:101ED800CBD06B6913F0800FBAD07B6843F4806372
:101EE8007B60B5E709EBC90304EB8303002283F8A1
:101EF800572259462046FFF74FF9B1E7206801F00D
:101F080001F98046B14625E059462046FFF702F917
:101F18001AF0080F04D005EB49130822C3F8082962
:101F28001AF0100F04D005EB49131022C3F8082942
:101F38001AF0400F04D005EB49134022C3F80829D2
:101F48001AF0020F40D11AF0800F59D109F1010996
:101F58004FEA5808B8F1000F3FF4D4AE18F0010F5B
:101F6800F4D05FFA89FB5946206801F0DCF8824614
:101F780010F0010FCCD009F00F02012101FA02F292
:101F88007B6B23EA02037B6305EB4913C3F808194B
:101F9800A3798B42B8D109EBC90304EB83031A6A0E
:101FA800D9690A441A62B9F1000FADD109EBC90326
:101FB80004EB83035B6A002BA6D104F29C42012147
:101FC800206801F009F99FE74946284600F064FBBC
:101FD80009EBC90304EB8303DB7D012B05D005EB7B
:101FE80049130222C3F80829ADE709EBC90304EB3A
:101FF80083030022DA7559462046FFF7D3F8EEE747
:1020080049462046FFF776FAA0E77B6823F00103EC
:102018007B6094F8CC34012B08D02046FFF7B6F843
:102028002268536903F00043536171E6002184F884
:10203800CC14204600F0D2F9F2E72046FFF78FF8DB
:1020480071E62046FFF78BF88EE67B6823F00103E4
:102058007B601021206800F01FFB1AE005EB461397
:102068004FF67F31C3F80819D3F8002922F400127B
:10207800C3F80029C3F8081BD3F8002B22F4001278
:10208800C3F8002BD3F8002B42F00062C3F8002BF2
:1020980001362379B342E1D8FB6943F00113FB61B0
:1020A800E37BDBB1D7F8843043F00B03C7F8843007
:1020B8007B6C43F00B037B64D5F8003823F4FE6394
:1020C800C5F8003804F29C42A179206801F084F830
:1020D8002268536903F4805353614CE67A6942F2EB
:1020E8002B0313437B613B6943F00B033B61E3E73D
:1020F800206801F063F8206800F0E4FBE0712668CE
:1021080002F0CEF80146E279304600F047FA204660
:10211800FFF711F82268536903F40053536131E65D
:102128002046FFF702F82268536903F00803536159
:102138002FE6013322799A4216D903EBC30204EB46
:10214800820292F85722012AF3D105EB4312D2F802
:10215800001B41F00061C2F8001BD2F8001B41F0DF
:102168008041C2F8001BE4E7206800F0B6FF10F4D5
:10217800801F25D1206800F0B0FF10F4001F58D050
:10218800012326E001362379B3421BD905EB461318
:10219800D3F8002906EBC60304EB83031B7E012B4F
:1021A800F0D1002AEEDA06EBC60304EB8303012222
:1021B800DA7566F07F01C9B22046FFF73AFDE1E71C
:1021C8000126E0E72268536903F480135361D1E7DD
:1021D800013322799A4227D905EB4312D2F8001B22
:1021E80003EBC30204EB820292F85822012AEFD1D2
:1021F8000029EDDAD4F8D42482EA114212F0010F52
:10220800E6D103EBC30204EB8202012182F85712E4
:10221800AA6942F08002AA616A6912F0800FD7D1D8
:102228007B6843F400737B602268536903F40013EE
:102238005361206800F051FF10F0804F10D12068E2
:1022480000F04BFF10F0040F3FF416AD23685D68F3
:1022580015F0040F0DD1226853682B4353600BE52A
:102268002046FEF7A5FF2268536903F080435361B7
:10227800E5E72046FEF7A2FFEDE790F89434012B3E
:1022880014D010B50446012380F8943411F0800F5F
:1022980006D1006800F025FA002084F8940410BDE7
:1022A80001F00F01006800F0F7F9F5E70220704728
:1022B80008B5006801F0F9F808BD08B5006801F034
:1022C80001F908BD90F89504704703684A1E042A6E
:1022D8000BD8D3F8042822F07002C3F80428D3F8E6
:1022E800042842EA0112C3F804280020704700BFFE
:1022F80010B40468606A31B940EA0240A062002064
:102308005DF8044B70478C46A36A00EB134000232A
:1023180008E003F1400104EB8101496800EB11403A
:102328000133DBB20CF1FF318B42F2D340EA0240B9
:102338000CF13F0104EB81046060E0E70368596237
:1023480000207047034602680121C0F8D814002015
:1023580083F8CC04936943F000639361516D024B99
:102368000B435365704700BF030000100246036823
:102378000020C2F8D8049A6922F000629A61596D67
:10238800014A0A405A657047FCFFFFEF03689A6BE1
:1023980022F400229A639A6B22F480129A639A6B51
:1023A80022F480329A639A6B42F400329A630123D2
:1023B800C0F8DC340020704702460368996B21F4AA
:1023C80080119963996B21F400219963996B21F429
:1023D800003199630020C2F8DC04704770477047E9
:1023E80070B50546046807F005F80646A36B43F484
:1023F8008023A3634FF4967007F020F8A36B13F0C3
:10240800010F23D1A36B23F48023A363322007F0A9
:1024180015F8A36B43F40023A363322007F00EF8EA
:10242800A36B13F0020F16D1FD212846FFF7D7FF43
:102438002846FFF7C1FF06F0DDFF801BB0F57A7F65
:1024480025D9FF212846FFF7CAFF70BDFE2128467F
:10245800FFF7C5FFD6E7A36B23F40023A36332205D
:1024680006F0ECFFA36B43F48013A363322006F05D
:10247800E5FFA36B13F0040F04D0FB212846FFF7F8
:10248800AEFFD5E7FC212846FFF7A9FFD0E70021DA
:102498002846FFF7A4FFD8E782B000230193019BE9
:1024A80001330193019BB3F1706F1CD80369002BB2
:1024B800F5DA0A23019302E0019B013B0193019B9A
:1024C800002BF9D1036943F001030361019B013338
:1024D8000193019BB3F1706F08D8036913F0010FE2
:1024E800F4D1002000E0032002B070470320FBE78E
:1024F80084B010B5044603A880E80E009DF811309A
:10250800012B1FD1A36B23F48033A363E268214B13
:102518001340E360E36823F44013E3609DF8183048
:10252800012B0AD02046FFF7B7FF9DF80E30012B8C
:102538001CD0BDE8104004B07047E36843F4801332
:10254800E360EFE7E36843F04003E3602046FFF70A
:10255800A3FF9DF8153023B9A36B43F48033A3631D
:10256800E3E7A36B23F48033A363DEE7E36D9BB259
:10257800E365E26D084B1343E365A36823F01E038C
:10258800A360A36843F00603A360A36843F0200395
:10259800A360CEE7BFFFBDFF0000EE03022A0AD00A
:1025A8000922C36823F47053C360C36843EA8223D3
:1025B800C36000207047204B0B44204A934229D91E
:1025C8001F4B0B441F4A934226D91F4B0B441F4AEB
:1025D800934223D91E4B0B441E4A934220D31E4BD1
:1025E8000B441E4A93421DD91D4B0B441D4A93426E
:1025F8001AD31D4B0B441D4A934217D31C4B0B4453
:102608001C4A934214D31C4B0B441C4A934211D2CC
:102618000722C6E70F22C4E70E22C2E70D22C0E751
:102628000C22BEE70B22BCE70A22BAE70922B8E768
:102638000822B6E70622B4E7405327FFFF340C0010
:10264800401E1BFF3F420F0000DC0BFF7F4F1200B4
:10265800808CF9FE20D6130060B6E5FE5FE3160015
:1026680000D3CEFE40771B00C05BB3FEC0912100B3
:1026780000CA91FE20753800E05459FEE09C4100E4
:10268800836843F00103836000207047836823F068
:10269800010383600020704782B000230193019BEF
:1026A80001330193019BB3F1706F15D80369002BB7
:1026B800F5DA00230193890141F020010161019BB2
:1026C80001330193019BB3F1706F08D8036913F0CC
:1026D800200FF4D1002000E0032002B0704703204F
:1026E800FBE782B000230193019B01330193019B17
:1026F800B3F1706F13D80369002BF5DA0023019347
:1027080010230361019B01330193019BB3F1706FA7
:1027180008D8036913F0100FF4D1002000E003205B
:1027280002B070470320FBE7D0F800381943C0F81F
:1027380000180020704784B0F8B5044607A880E860
:102748000E00002306E003F1400204EB82020021A0
:10275800516001330E2BF6D99DF8266006BBD4F8DC
:10276800043843F00203C4F80438A36B23F40013BD
:10277800A363236843F040032360236843F0800386
:1027880023600023C4F8003E9DF82130012B11D1AD
:102798009DF81F304BB900212046FFF7C5FF0DE01B
:1027A800A36B43F40013A363EBE701212046FFF773
:1027B800BBFF03E003212046FFF7B6FF10212046A8
:1027C800FFF76AFF054600B101252046FFF789FF9C
:1027D80000B1012504F5006C0023CCF81030CCF8CA
:1027E8001430CCF81C300DE04FF09040C2F80009CE
:1027F80002E00020C2F8000900220A614FF67F3289
:102808008A6001339DF81C1099420ED904EB4312DB
:1028180002F51061D2F800090028EADA002BE3D1AA
:102828004FF00060C2F80009E6E700230AE0BBB1F8
:102838004FF09047C2F8007B002202614FF67F32CA
:1028480082600133994210D904EB431202F53060DB
:10285800D2F8007B002FEADB0027C2F8007BEBE709
:102868004FF00067C2F8007BE6E7DCF8103023F48D
:102878008073CCF810300023A3616FF0804363614C
:102888009DF81E301BB9A36943F01003A361A26928
:102898000A4B1343A3619DF822301BB1A36943F08F
:1028A8000803A361012E04D02846BDE8F84004B00F
:1028B8007047A269024B1343A361F5E700383C80D7
:1028C80004000040D0F8083803F00603022B04D0B7
:1028D800062B04D02BB90020704702207047022035
:1028E80070470F20704710B591F800C04B78012B46
:1028F80021D000F5006ED0F81C380CF00F0401222E
:10290800A24043EA0243C0F81C3800EB4C10D0F850
:10291800003B13F4004F0CD1D0F8002B8B68C3F3A5
:102928000A03097943EA81431A43134B1343C0F856
:10293800003B002010BDD0F81C280CF00F0E03FA45
:102948000EF39BB21343C0F81C3800EB4C10D0F8C0
:10295800003913F4004FECD1D0F800298B68C3F389
:102968000A03097943EA814343EA8C531A43024B29
:102978001343C0F80039DCE70080001030B40A784F
:102988004B78012B23D000EB421CDCF8003B13F4FE
:10299800004F0ED1DCF8004B8B68C3F30A030D79A6
:1029A80043EA854343EA8253234343F40043CCF884
:1029B800003BD0F83C38097801F00F0101228A4029
:1029C80043EA0243C0F83C38002030BC704700EBB3
:1029D8004214D4F8003913F4004F10D1D4F8005938
:1029E8008B68C3F30A0391F804C043EA8C4343EAB3
:1029F800825345EA0302084B1343C4F80039D0F860
:102A08003C28097801F00F0101238B409BB2134346
:102A1800C0F83C38D8E700BF0080001030B40B780D
:102A28004A78012A26D000EB4313D3F8002B002A5A
:102A380052DBD0F83C480A7802F00F024FF0010C44
:102A48000CFA02F224EA0242C0F83C28D0F81C280A
:102A5800097801F00F010CFA01FC22EA0C42C0F8D7
:102A68001C28D3F8001B234A0A40C3F8002B002077
:102A780030BC704700EB4313D3F80029002A1EDB53
:102A8800D0F83C580A7802F00F02012404FA02F246
:102A980092B225EA0202C0F83C28D0F81C2809782E
:102AA80001F00F018C40A4B222EA0402C0F81C28ED
:102AB800D3F80019104A0A40C3F80029D7E7D3F819
:102AC800002942F00062C3F80029D3F8002942F037
:102AD8008042C3F80029D3E7D3F8002B42F0006204
:102AE800C3F8002BD3F8002B42F08042C3F8002B28
:102AF8009FE700BF0078F3EF007833EC0B784A7853
:102B0800012A18D000EB4313D3F8002B002A38DB36
:102B1800D3F8002B22F40042C3F8002BD0F81C385D
:102B2800097801F00F0101228A4023EA0243C0F824
:102B38001C380020704700EB4313D3F80029002A03
:102B480012DBD3F8002922F40042C3F80029D0F898
:102B58001C28097801F00F0101238B409BB222EA5F
:102B68000303C0F81C38E4E7D3F8002942F00062F8
:102B7800C3F80029D3F8002942F08042C3F800299D
:102B8800DFE7D3F8002B42F00062C3F8002BD3F83C
:102B9800002B42F08042C3F8002BB9E710B483B091
:102BA8000246002301938468487801281DD0936960
:102BB80023F080039361536913F0800F05D1D2F895
:102BC800043843F40073C2F8043814F0200F46D1D7
:102BD800019B01330193019BB3F5702F2DD85369E5
:102BE80013F0100FF4D0002028E00B7802EB431309
:102BF800D3F80049002C01DB002068E0D3F8004935
:102C080044F00064C3F800490B7802EB4313D3F88F
:102C1800004944F08044C3F80049019B0133019303
:102C2800019BB3F5702F52D80B7802EB4313D3F8FE
:102C38000039002BF1DB002049E00120136A0093E2
:102C4800009B00230193019B01330193019BB3F582
:102C5800702F06D8536913F0800FF4D002E00020DB
:102C6800EFE701200B7802EB4313D3F8004B44F055
:102C78000064C3F8004B0B7802EB4313D3F8004B06
:102C880044F08044C3F8004B00230193019B0133B7
:102C98000193019BB3F5702F09D80B7802EB43130E
:102CA80003F530639B6813F0020FEFD000E00120BA
:102CB8000B7802EB4313D3F8081B41F00201C3F869
:102CC800081BD2F8043843F48063C2F8043803B010
:102CD8005DF8044B70470B784A78012A14D000EB52
:102CE8004310D0F8002B002A06DB2BB1D0F8003BAC
:102CF80023F08043C0F8003BD0F8003B43F40013B6
:102D0800C0F8003B0020704700EB4310D0F80029C2
:102D1800002A06DB2BB1D0F8003923F08043C0F835
:102D28000039D0F8003943F40013C0F80039E9E756
:102D38000B784A78012A0ED000EB4310D0F8003BFC
:102D480023F40013C0F8003B0B79023BDBB2012BE4
:102D580015D90020704700EB4310D0F8003923F450
:102D68000013C0F800390B79023BDBB2012BF0D815
:102D7800D0F8003943F08053C0F80039E9E7D0F8BB
:102D8800003B43F08053C0F8003BE2E710B59DF8E4
:102D9800084084B903334FEA930E4FF0000C08E063
:102DA80000EB023303F5805351F8044B1C600CF11F
:102DB800010CF445F4D3002010BDF0B583B00C78B5
:102DC8004B78012B2DD000EB441C0CF530631D69AA
:102DD8006FF312051D611D696FF3DC451D61002C41
:102DE80040F0CE800C690CB18C680C618C680C6268
:102DF8001D69C4F312042C431C611C6944F40024AB
:102E08001C61012A00F0DF800B79012B00F0E180C2
:102E1800DCF8003B43F00443CCF8003B002003B04F
:102E2800F0BD0B6973BB00EB4413D3F810596FF373
:102E3800DC45C3F81059D3F8105945F40025C3F8F8
:102E48001059D3F810596FF31205C3F81059012A15
:102E580054D000EB4414D4F8003943F00443C4F8C8
:102E680000390B79012B72D00B69002BD6D0D0F822
:102E78003438097801F00F0101228A401343C0F861
:102E88003438CBE700EB441303F510631D696FF387
:102E980012051D611D696FF3DC451D6184B90E695A
:102EA8008D68AE4200D90D611D6945F400251D618C
:102EB8001D690E69C6F3120C45EA0C051D61C6E7CB
:102EC8000D698E683544013DB5FBF6F51E691FFA9C
:102ED80085FC494F07EAC54535431D610D79012D2C
:102EE800E6D11D6925F0C0451D611D694FEA4C7C7E
:102EF8000CF0C04C45EA0C051D61D9E7CB691BB144
:102F080000EB4412C2F814390B79012B08D000EBFE
:102F18004414D4F8003943F00443C4F800397DE779
:102F2800D0F8083813F4807F08D100EB4412D2F8A7
:102F3800003943F00053C2F80039E8E700EB4412C7
:102F4800D2F8003943F08053C2F80039DFE7D0F8EF
:102F5800083813F4807F0CD1D4F8003943F00053BB
:102F6800C4F8003900920B8A0A78C968FFF70EFF87
:102F780054E7D4F8003943F08053C4F80039F1E736
:102F88000C6954B91C698D68C5F312052C431C6182
:102F98001C6944F400241C6133E78D682C44013C0F
:102FA800B4FBF5F4A4B204FB05F50D621D69124EDD
:102FB80006EAC4442C431C611C690D6AC5F312055A
:102FC8002C431C611DE7CA68002A3FF41DAF5A61F3
:102FD8001AE7D0F8083813F4807F06D1DCF8003BF4
:102FE80043F00053CCF8003B12E7DCF8003B43F019
:102FF8008053CCF8003B0BE70000F81F10B584465F
:1030080008464FEA920E02F00302002305E00CF591
:103018008051096840F8041B01337345F7D37AB12E
:103028000CF5805CDCF800400021CBB2DB0024FA10
:1030380003F300F8013B0131013A92B2002AF4D1BE
:1030480010BD10B50446002208E004EB42134FF609
:103058007F31C3F80819C3F8081B01320E2AF4D9C6
:103068000022C4F81028C4F81428C4F81C282046E4
:10307800FFF737FB00B110BD10212046FFF70CFB0E
:10308800F9E7D0F8003823F4FE63C0F80038D0F828
:103098000038090101F4FE610B43C0F80038002034
:1030A8007047D0F8003E23F00303C0F8003ED0F884
:1030B800043823F00203C0F8043800207047D0F821
:1030C800003E23F00303C0F8003ED0F8043843F074
:1030D8000203C0F804380020704742698069104034
:1030E800704700EB411000F5A063D0F80805DB68D5
:1030F80018407047D0F8183800F50060C0691840CB
:10310800000C7047D0F8183800F50060C069184006
:1031180080B2704700EB4111D1F8082B00F5006030
:10312800406910407047D0F81028D0F8343801F0C2
:103138000F0C23FA0CF3DB01DBB2134300EB411055
:1031480000F5106080681840704743690B40436180
:103158007047406900F00100704738B50546C368FC
:1031680023F0C043C360012913D019BBC36843F0DF
:103178008043C36000240A2006F060F90A34284618
:10318800FFF7E7FF08B1C72CF5D9C82C14D00020E9
:1031980038BDC36843F00053C36000240A2006F01A
:1031A8004DF90A342846FFF7D4FF0128EDD0C72C83
:1031B800F4D9EAE70120EBE70120E9E7D0F8003984
:1031C8006FF30A03C0F80039D0F8043843F4807369
:1031D800C0F804380020704710B4046C154B9C42AA
:1031E80003D9D0F8003B002B16DB0024C0F8104BA5
:1031F800D0F8104B44F40024C0F8104BD0F8104B12
:1032080044F01804C0F8104BD0F8104B44F0C044F8
:10321800C0F8104B012903D000205DF8044B70471B
:10322800C0F8142BD0F8003B43F08023C0F8003BD3
:10323800F2E700BF0A30544F84B038B5044605A8F9
:1032480080E80E000023C4F8003EA36B23F40013AB
:10325800A363A36B23F40033A363E36813F0400F65
:1032680011D19DF81730012B06D0D4F8003423F083
:103278000403C4F800340CE0D4F8003443F0040329
:10328800C4F8003405E0D4F8003423F00403C4F88B
:10329800003410212046FFF7FFF9054600B101254B
:1032A8002046FFF71EFA00B10125002209E004EBD1
:1032B80042134FF0FF31C3F808150021C3F80C156D
:1032C80001329DF815309342F1D80023A3614FF0E5
:1032D800FF3363614FF40073636203F18073A36289
:1032E800094BC4F800319DF816301BB9A36943F0A7
:1032F8001003A361A269054B1343A3612846BDE8E7
:10330800384004B0704700BF0003E000080020A365
:1033180000F5806CD0F8003423F00303C0F80034C3
:10332800D0F8003401F003021343C0F80034012937
:1033380007D002290BD141F27073CCF80430002079
:1033480070474BF68033CCF80430002070470120DA
:10335800704730B583B0044600250195D0F8403455
:103368000193019B23F02E030193019B43F4807387
:10337800C0F84034642006F061F8019B23F48073A0
:10338800C4F840340A2006F059F8284603B030BD86
:1033980082B000230193D0F840340193019B23F0BD
:1033A8002E030193019B13F4805F01D101290CD0F6
:1033B800019B13F4805F05D021B9019B23F480534E
:1033C800C0F84034002002B07047019B43F480539A
:1033D800C0F84034ECE782B000230193D0F84034C1
:1033E80001930198C0F3414002B0704700F5806036
:1033F800806880B2704700EB4110064AC0F810257B
:10340800D0F8003523F0804343F00043C0F800357E
:10341800002070470000088030B583B004460023C0
:103428000193FFF733F910212046FFF735F90546D8
:1034380000B101252046FFF754F900B1012500220B
:103448000AE004EB4211D1F8003523F0802343F061
:103458008043C1F8003501320F2AF2D9002100E07B
:1034680001310F2916D804EB411000F5A062D0F8FD
:10347800003523F4004343F04043C0F80035019B76
:1034880001330193019BB3F57A7FE9D81368002BC8
:10349800F5DBE5E74FF0FF33C4F8143463612046E9
:1034A800FFF7EEF8284603B030BDD0F8083800F52D
:1034B800006013F0010F03D0436843F00103436039
:1034C80000207047D0F8043823F00103C0F804380E
:1034D8000020704738B5684B1B6803F00F03062BB4
:1034E8000CD8654A136823F00F0343F007031360F1
:1034F800136803F00F03072B40F0BA8005F07AFF3A
:1035080004465E4A136843F0010313605B4B1B6873
:1035180013F0040F06D105F06DFF001B0228F5D942
:103528000324A6E0554B5A6842F080425A600022B4
:103538001A61534B534A1360534A1360534B18682C
:1035480005F0F8FE044608B1012492E005F052FFA8
:1035580005464A4B1B6913F0380F08D005F04AFF9F
:10356800401B41F288339842F3D9032481E005F0E7
:1035780041FF0546414A1168454B0B4013603F4BDC
:103588001B6813F4003F06D005F034FF401B642885
:10359800F5D903246DE005F02DFF0546374A136879
:1035A80023F080731360354B1B6813F0007F06D03F
:1035B80005F020FF401B0228F5D9032459E005F047
:1035C80019FF05462D4A136823F0806313602B4BBF
:1035D8001B6813F0006F06D005F00CFF401B022893
:1035E800F5D9032445E005F005FF0546234A13688D
:1035F80023F080531360214B1B6813F0005F06D043
:1036080005F0F8FE401B0228F5D9032431E01B4BD6
:1036180000229A61DA611A621E4999621E49D962CA
:103628001E4919635A639963DA6319645A641968FD
:1036380021F4802119601A664FF0FF329A66D3F898
:10364800D02042F48032C3F8D0200B4B1B6813F013
:10365800080F0ED0084A136823F00F0343F007033E
:103668001360136803F00F03072B02D0012400E056
:103678000124204638BD00BF0020005200440258F3
:103688000090D003080100240401002478000024DD
:1036980045EDF6FF000202020000FF018002010171
:1036A800002800F0398338B50446036813F0010F89
:1036B80025D0944A136903F03803926A102B15D069
:1036C800182B0FD06368B3F5803F3FD0002B53D140
:1036D8008C4B1A6822F480321A601A6822F480220D
:1036E8001A6038E002F00302022AEBD1854B1B680E
:1036F80013F4003F03D06368002B00F00F832368A6
:1037080013F0020F00F0A1807E4A1369926A13F049
:1037180038035AD0182B55D0E368002B00F0DE8010
:1037280078490A6822F0190213430B6005F062FE1B
:103738000546744B1B6813F0040F40F0AD8005F08C
:1037480059FE401B0228F4D90320EEE26D4A1368A3
:1037580043F48033136063682BB305F04BFE0546D2
:10376800684B1B6813F4003FC9D105F043FE401BAA
:103778006428F5D90320D8E2B3F5A02F09D0614B0E
:103788001A6822F480321A601A6822F480221A60B9
:10379800E1E75C4B1A6842F480221A601A6842F426
:1037A80080321A60D7E705F025FE0546554B1B68A1
:1037B80013F4003FA3D005F01DFE401B6428F5D983
:1037C8000320B2E212F0030FA6D14E4B1B6813F090
:1037D800040F03D0E368002B00F0A282494A136863
:1037E80023F01903E1680B43136005F003FE054657
:1037F800444B1B6813F0040F06D105F0FBFD401B7A
:103808000228F5D9032090E205F03EFE41F20303B9
:10381800984212D82269402A07D03A494B6823F4C3
:103828007C3343EA02334B600FE0364A536823F493
:103838007C3343F40033536007E0324A536823F083
:10384800FE43216943EA01635360236813F0100FB4
:1038580000F088802B4A136903F03803926A082B1A
:1038680056D0182B50D0E369002B00F0B880254AB9
:10387800136843F08003136005F0BCFD0546214B37
:103888001B6813F4807F40F0888005F0B3FD401B6F
:103898000228F4D9032048E205F0F6FD41F20303BB
:1038A800984212D82269402A07D016494B6823F457
:1038B8007C3343EA02334B60C7E7124A536823F468
:1038C8007C3343F400335360BFE70E4A536823F058
:1038D800FE43216943EA01635360B6E7094A136866
:1038E80023F00103136005F085FD0546054B1B68B1
:1038F80013F0040FA9D005F07DFD401B0228F5D96F
:10390800032012E20044025802F00302012AAAD15D
:10391800A14B1B6813F4807F03D0E369802B40F030
:10392800018205F0B1FD41F20303984212D8226AE0
:10393800202A07D098494B6823F0F84343EA82636A
:103948004B600FE0944A536823F0F84343F08043F8
:10395800536007E0904AD36823F07C53216A43EA16
:103968000163D360236813F0080F60D06369002BEC
:1039780049D0894A536F43F00103536705F03AFD74
:103988000546854B5B6F13F0020F50D105F032FDF1
:10399800401B0228F5D90320C7E105F075FD41F267
:1039A8000303984212D8226A202A07D07A494B6822
:1039B80023F0F84343EA82634B60D3E7764A5368BF
:1039C80023F0F84343F080435360CBE7724AD3684F
:1039D80023F07C53216A43EA0163D360C2E76E4A4D
:1039E800136823F08003136005F004FD05466A4B55
:1039F8001B6813F4807FB5D005F0FCFC401B02283F
:103A0800F5D9032091E1644A536F23F0010353670A
:103A180005F0F0FC0546604B5B6F13F0020F06D013
:103A280005F0E8FC401B0228F5D903207DE1236856
:103A380013F0200F29D0A3699BB1574A136843F4A8
:103A48008053136005F0D6FC0546534B1B6813F4EE
:103A5800005F1AD105F0CEFC401B0228F5D90320DF
:103A680063E14D4A136823F48053136005F0C2FCE8
:103A78000546494B1B6813F4005F06D005F0BAFCF5
:103A8800401B0228F5D903204FE1236813F0040FE7
:103A980021D1636A002B00F047813F4A126902F086
:103AA8003802182A00F0EE80022B79D03A4A1368BF
:103AB80023F08073136005F09DFC0446364B1B68A9
:103AC80013F0007F00F0DC8005F094FC001B022856
:103AD800F4D9032029E1314A136843F48073136051
:103AE80005F088FC05462D4B1B6813F4807F06D132
:103AF80005F080FC401B6428F5D9032015E1A36874
:103B0800012B0AD00BBB244B1A6F22F001021A6753
:103B18001A6F22F004021A6704E01F4A136F43F079
:103B280001031367A36833B305F064FC05461A4B19
:103B38001B6F13F0020FACD105F05CFC401B41F287
:103B480088339842F3D90320EFE0052B09D0124BB4
:103B58001A6F22F001021A671A6F22F004021A671C
:103B6800E0E70D4B1A6F42F004021A671A6F42F031
:103B780001021A67D6E705F03DFC0546064B1B6FA8
:103B880013F0020F85D005F035FC401B41F2883355
:103B98009842F3D90320C8E000440258004802586C
:103BA800694A136823F08073136005F023FC054607
:103BB800654B1B6813F0007F06D005F01BFC401B0B
:103BC8000228F5D90320B0E05F4B996A5F4A0A40A2
:103BD800A16AE06A41EA00110A439A62226B013A3B
:103BE800C2F30802616B0139490289B20A43A16B29
:103BF8000139090401F4FE010A43E16B01390906A0
:103C080001F0FE410A431A63DA6A22F00102DA621D
:103C18005A6B6FF3CF02A16C42EAC1025A63DA6AA7
:103C280022F00C02216C0A43DA62DA6A22F00202FC
:103C3800616C0A43DA62DA6A42F48032DA62DA6A7A
:103C480042F40032DA62DA6A42F48022DA62DA6A2C
:103C580042F00102DA621A6842F080721A6005F0D6
:103C6800C9FB0446384B1B6813F0007F06D105F0EA
:103C7800C1FB001B0228F5D9032056E0002054E0C0
:103C8800002052E0304A916A106B012B4ED001F0AF
:103C98000303A26A93424BD1C1F30511E36A994227
:103CA80048D1C0F30802236B013B9A4244D1C0F3C8
:103CB8004622636B013B9A4240D1C0F30642A36B94
:103CC800013B9A423CD1C0F30660E36B013B98424A
:103CD80038D11D4B5B6BC3F3CC03A26C9A4201D164
:103CE800002022E0184AD36A23F00103D36205F0CA
:103CF80081FB054605F07EFBA842FBD0124A536BB8
:103D08006FF3CF03A16C43EAC1035363D36A43F053
:103D18000103D362002008E001207047012004E07D
:103D2800012002E0012000E0002038BD0120FCE76E
:103D38000120FAE70120F8E70120F6E70120F4E77F
:103D48000120F2E70120F0E7004402580CFCFFFFD5
:103D580070B588B00C46154610BB234ED6F8E03037
:103D680043F00103C6F8E030D6F8E03003F0010371
:103D78000193019B4FF4807303930223049303235D
:103D8800069300230593079303A9184802F014FB30
:103D9800336923F0FE7325431D43356108B070BDB8
:103DA800114ED6F8E03043F00403C6F8E030D6F8F8
:103DB800E03003F004030293029B4FF40073039373
:103DC800022304930323069300230593079303A96F
:103DD800074802F0F1FA336923F07E4344EAC51438
:103DE8001C433461DAE700BF00440258000002585F
:103DF80000080258024A136843F40023136070470E
:103E080000440258024A136823F4002313607047E1
:103E180000440258754B1B6903F03803102B00F05F
:103E2800DE80182B0FD0002B40F0DB806F4B1B6817
:103E380013F0200F00F0D7806C4B1B68C3F3C1034D
:103E48006B48D840704710B4684B9A6A02F0030276
:103E58009C6AC4F30510D96A01F001015B6BC3F3D6
:103E6800CC0301FB03F307EE903AF8EE677A14F4FB
:103E78007C7F77D0012A4AD0022A76D0002A40F0E7
:103E880091805A4B1B6813F0200F23D057490A68BA
:103E9800C2F3C102564BD34007EE103AF8EE476A18
:103EA80007EE100AB8EE476A86EE867A0B6BC3F304
:103EB800080306EE903AF8EE666A9FED4E6A67EEE2
:103EC800867A76EEA77AF7EE006A77EEA67A27EE7C
:103ED800277A38E007EE100AF8EE476A9FED466A3F
:103EE80086EE267A414B1B6BC3F3080306EE903A25
:103EF800F8EE666A9FED3F6A67EE867A76EEA77AF5
:103F0800F7EE006A77EEA67A27EE277A1BE007EE2F
:103F1800100AF8EE476A9FED396A86EE267A334B27
:103F28001B6BC3F3080306EE903AF8EE666A9FED42
:103F3800316A67EE867A76EEA77AF7EE006A77EE50
:103F4800A67A27EE277A294B1B6BC3F34623013346
:103F580007EE903AF8EE677AC7EE276AFCEEE67A43
:103F680017EE900A5DF8044B704707EE100AF8EE5A
:103F7800476A9FED236A86EE267A1C4B1B6BC3F3B8
:103F8800080306EE903AF8EE666A9FED1A6A67EE45
:103F9800867A76EEA77AF7EE006A77EEA67A27EEAB
:103FA800277AD0E707EE100AF8EE476A9FED136A02
:103FB80086EE267A0D4B1B6BC3F3080306EE903A88
:103FC800F8EE666A9FED0B6A67EE867A76EEA77A58
:103FD800F7EE006A77EEA67A27EE277AB3E7094864
:103FE8007047094870470248704700BF00440258AC
:103FF8000090D003000000390024744C0024744A57
:1040080020BCBE4B40787D0100093D00002800F02F
:10401800328170B50D4604469B4B1B6803F00F03B5
:104028008B420BD2984A136823F00F030B4313609B
:10403800136803F00F038B4240F01F81236813F0CD
:10404800040F0CD02269914B9B6903F070039A42CC
:1040580005D98E498B6923F070031A438A61236856
:1040680013F0080F0CD06269884BDB6903F070030A
:104078009A4205D98549CB6923F070031A43CA616E
:10408800236813F0100F0CD0A269804BDB6903F48E
:10409800E0639A4205D97D49CB6923F4E0631A436A
:1040A800CA61236813F0200F0CD0E269774B1B6AB2
:1040B80003F070039A4205D974490B6A23F0700320
:1040C8001A430A62236813F0020F0CD0E2686F4BA0
:1040D8009B6903F00F039A4205D96C498B6923F059
:1040E8000F031A438A61236813F0010F41D0674A0E
:1040F800936923F47063A1680B4393616368022B8F
:104108000AD0032B27D0012B2CD0604A126812F05A
:10411800040F06D10120ADE0126812F4003F00F050
:10412800AE805A490A6922F0070213430B6105F071
:1041380061F90646554B1B6903F038036268B3EB17
:10414800C20F16D005F056F9801B41F28833984209
:10415800F0D903208EE04D4A126812F0007FE0D1BA
:10416800012087E0494A126812F4807FD9D10120E2
:1041780080E0236813F0020F0CD0E268434B9B6980
:1041880003F00F039A4205D240498B6923F00F03CD
:104198001A438A613C4B1B6803F00F03AB420AD9F0
:1041A800394A136823F00F032B431360136803F095
:1041B8000F03AB4265D1236813F0040F0CD02269BA
:1041C800324B9B6903F070039A4205D22F498B69E1
:1041D80023F070031A438A61236813F0080F0CD088
:1041E80062692A4BDB6903F070039A4205D22749BA
:1041F800CB6923F070031A43CA61236813F0100FC8
:104208000CD0A269214BDB6903F4E0639A4205D222
:104218001E49CB6923F4E0631A43CA61236813F08B
:10422800200F0CD0E269194B1B6A03F070039A4205
:1042380005D216490B6A23F070031A430A62FFF786
:10424800E9FD12498B69C3F30323114AD35C03F0D8
:104258001F03D8408B6903F00F03D35C03F01F03DF
:1042680020FA03F30B4A13600B4B18600B4B1868CA
:1042780005F060F870BD012070470120FAE70120C1
:10428800F8E70120F6E700BF00200052004402587A
:10429800743A01080401002408010024780000246D
:1042A80008B5FFF7B7FD0B4A9369C3F303230A491F
:1042B800CB5C03F01F0320FA03F3926902F00F02AC
:1042C800885C00F01F0023FA00F0044A1060044ADA
:1042D800136008BD00440258743A01080401002420
:1042E8000801002408B5FFF7DBFF054BDB69C3F3C2
:1042F8000213044AD35C03F01F03D84008BD00BF73
:1043080000440258743A010808B5FFF7C9FF054B85
:10431800DB69C3F30223044AD35C03F01F03D840CC
:1043280008BD00BF00440258743A010810B504469D
:104338003F230360514B1B6813F4802F6CD04FF45C
:10434800A02343604D4B1B6813F0800F70D080236F
:10435800E36105F099F841F2030398426BD8474BA3
:104368005B68C3F384632362444B1B6813F0010F3B
:1043780067D00123E36005F087F841F20303984210
:1043880062D83E4B5B68C3F3053323613B4B1B6F1D
:1043980013F0040F5ED00523A360384B5B6F13F056
:1043A800010F62D001236361344B1B6813F4805FF3
:1043B8005ED00123A361314B1B6813F0807F5AD074
:1043C800022363622D4B9A6A02F00302A2629A6A80
:1043D800C2F30512E2621A6BC2F3080201322263C9
:1043E8001A6BC2F306620132E2631A6BC2F3462209
:1043F800013262631A6BC2F306420132A263DA6ABF
:1044080002F00C022264DA6AC2F3400262645B6B57
:10441800C3F3CC03A36410BD184B1B6813F4803F8F
:1044280003D04FF4803343608CE70023436089E76F
:104438000023E3618DE7114BDB68C3F30563236257
:1044480092E70023E36096E70C4B5B68C3F30663CF
:1044580023619BE7094B1B6F13F0010F02D0012367
:10446800A3609AE70023A36097E7002363619BE7B3
:104478000023A3619FE701236362A3E70044025876
:104488003F230360114B1A6902F0070242609A69E0
:1044980002F4706282609A6902F00F02C2609A693F
:1044A80002F070020261DA6902F070024261DA69B0
:1044B80002F4E06282611B6A03F07003C361044B7B
:1044C8001B6803F00F030B60704700BF00440258DD
:1044D80000200052704708B5064B5B6E13F4806FDE
:1044E80000D108BDFFF7F6FF024B4FF480629A66D1
:1044F800F7E700BF00440258404B9B6A03F00303F0
:10450800032B79D070B505460E463C4A136823F054
:104518008063136004F06EFF0446384B1B6813F089
:10452800006F06D004F066FF031B022BF5D90320A9
:1045380070BD324B9A6A22F47C32296842EA013211
:104548009A626A68013AC2F30802A9680139490205
:1045580089B20A43E9680139090401F4FE010A43F2
:1045680029690139090601F0FE410A439A63DA6AAA
:1045780022F0C00269690A43DA62DA6A22F020028C
:10458800A9690A43DA62DA6A22F01002DA62DA6B9F
:104598006FF3CF02E96942EAC102DA63DA6A42F0EC
:1045A8001002DA62C6B91A46DB6A43F40023D36202
:1045B800124A136843F08063136004F01BFF04463B
:1045C8000E4B1B6813F0006F14D104F013FF001B8F
:1045D8000228F5D90320ABE7012E05D0074AD36A94
:1045E80043F40013D362E3E7044AD36A43F4801325
:1045F800D362DDE700209BE70120704700440258A2
:10460800404B9B6A03F00303032B79D070B5054632
:104618000E463C4A136823F08053136004F0EAFE08
:104628000446384B1B6813F0005F06D004F0E2FE26
:10463800031B022BF5D9032070BD324B9A6A22F076
:104648007C72296842EA01529A626A68013AC2F3A6
:104658000802A9680139490289B20A43E96801399F
:10466800090401F4FE010A4329690139090601F028
:10467800FE410A431A64DA6A22F4406269690A430D
:10468800DA62DA6A22F40072A9690A43DA62DA6A3B
:1046980022F48072DA625A6C6FF3CF02E96942EA57
:1046A800C1025A64DA6A42F48072DA62C6B91A46FA
:1046B800DB6A43F48003D362124A136843F08053E1
:1046C800136004F097FE04460E4B1B6813F0005F5E
:1046D80014D104F08FFE001B0228F5D90320ABE7A4
:1046E800012E05D0074AD36A43F08073D362E3E70B
:1046F800044AD36A43F40003D362DDE700209BE752
:104708000120704700440258F8B50446036813F0C6
:10471800006F30D0836EB3F5001F26D00ED8ABB132
:10472800B3F5801F07D102210830FFF7E5FE0546E3
:1047380095B12E4621E0012635461EE0B3F5401F0F
:1047480001D1002508E00126354616E09A4AD36AC9
:1047580043F40033D3620025974A136D23F44013C2
:10476800A16E0B431365002607E002212830FFF7EE
:1047780047FF0546DCE700263546236813F4807FAB
:1047880014D0A36D042B31D8DFE803F003222908E5
:104798000800894AD36A43F40033D3624DBB864A82
:1047A800136D23F00703A16D0B431365236813F4FE
:1047B800007F3FD0E36D802B2ED01FD833B3402B22
:1047C80019D1002104F10800FFF796FE054629E0FB
:1047D800002104F10800FFF78FFE0546DEE70021FF
:1047E80004F12800FFF70CFF0546D7E701263546F8
:1047F800DCE72E46DAE7012635461BE0C02B11D050
:10480800B3F5807F0ED00126354613E06A4AD36A95
:1048180043F40033D36205E0002104F12800FFF7D8
:10482800EFFE0546DDB9644A136D23F4E073E16DCC
:104838000B431365236813F4806F33D0D4F8A83082
:10484800B3F5800F1FD00FD8BBB1B3F5001F08D147
:10485800002104F10800FFF74FFE054619E02E4637
:10486800E8E7012635461DE0B3F5C00F11D0B3F5D2
:10487800000F0ED00126354614E04F4AD36A43F4A0
:104888000033D36205E0002104F12800FFF7B8FEE9
:104898000546E5B9484A936D23F46003D4F8A81097
:1048A8000B439365236813F4006F34D0D4F8AC300D
:1048B800B3F1007F1FD00FD8BBB1B3F1807F08D10F
:1048C800002104F10800FFF717FE054619E02E46FF
:1048D800E8E7012635461EE0B3F1407F11D0B3F179
:1048E800806F0ED00126354615E0334AD36A43F46B
:1048F8000033D36205E0002104F12800FFF780FEB1
:104908000546002D33D12C4A936D23F0E063D4F88B
:10491800AC100B439365236813F0007F13D0E36C4E
:10492800202B2ED028D833B1102B22D1224AD36A7B
:1049380043F40033D3625DBB1F4AD36C23F03003CA
:10494800E16C0B43D364236813F4805F46D0236E75
:10495800B3F5005F32D020D843B3B3F5805F19D1E7
:10496800002104F10800FFF7C7FD05462CE02E469C
:10497800D1E701263546E6E7302BDCD0012635465F
:10498800E1E7022104F10800FFF7B6FD0546D2E78A
:104998002E46D8E70126354620E0B3F5405F13D010
:1049A800B3F5804F10D00126354617E0024AD36A86
:1049B80043F40033D36207E000440258002104F1B5
:1049C8002800FFF71DFE05463DB9704A136D23F414
:1049D800E043216E0B43136500E02E46236813F471
:1049E800005F17D0636EB3F5003F4FD042D843B194
:1049F800B3F5803F3BD1012104F10800FFF77CFDAE
:104A08000546002D49D1614A136D23F4E023616EF8
:104A18000B431365236813F4804F19D0D4F8B030D2
:104A2800B3F1005F4AD03DD843B1B3F1805F36D1CE
:104A3800012104F10800FFF75FFD0546002D44D170
:104A4800524A936D23F0E043D4F8B0100B439365BA
:104A5800236813F4004F47D0236FB3F1805F36D03B
:104A6800B3F1005F4BD0BBB3012635463CE00126CD
:104A78003546CFE7B3F5802FC3D0B3F5A02FC0D00C
:104A8800B3F5403FBDD001263546C3E7012104F107
:104A98002800FFF7B5FD0546B3E72E46BAE701261D
:104AA8003546D5E7B3F1804FC8D0B3F1A04FC5D094
:104AB800B3F1405FC2D001263546C9E7012104F1B0
:104AC8002800FFF79DFD0546B8E72E46C0E72F4AA8
:104AD800D36A43F40033D362C5B92C4A136D23F06B
:104AE8004053216F0B431365236813F0807F1CD05C
:104AF800A36C032B44D8DFE803F0100B3C10012112
:104B080004F10800FFF7F8FC0546E5E72E46EBE759
:104B18001E4AD36A43F40033D362A5BB1B4AD36C45
:104B280023F00303A16C0B43D364236813F4800FB1
:104B38002ED1236813F0010F00F0A680E36F282B15
:104B480000F2A080DFE803F08E9E9E9E9E9E9E9EB1
:104B5800889E9E9E9E9E9E9E979E9E9E9E9E9E9E8A
:104B68008E9E9E9E9E9E9E9E8E9E9E9E9E9E9E9E7D
:104B78008E00022104F10800FFF7BEFC0546CCE7D1
:104B880001263546D1E72E46CFE700BF004402583C
:104B98005A4A136843F48073136004F02BFC0746E9
:104BA800564B1B6813F4807F05D104F023FCC01B0F
:104BB8006428F5D90325002D4AD1514B1B6FD4F831
:104BC800B420534013F4407F0CD04D4B1A6F22F49D
:104BD8004072196F41F480311967196F21F48031DF
:104BE80019671A67D4F8B430B3F5807F15D08DBB38
:104BF800D4F8B43003F44072B2F5407F1ED0404A76
:104C0800136923F47C5313613D490B6FD4F8B42026
:104C1800C2F30B0213430B678BE704F0EBFB074669
:104C2800374B1B6F13F0020FE1D104F0E3FBC01BFD
:104C380041F288339842F3D90325D8E7304802690E
:104C480022F47C522F4901EA131313430361DBE773
:104C58002E466EE72E466CE7012104F10800FFF7A7
:104C68004BFC0546E5B9264A536D23F03803E16F3E
:104C78000B43536508E0012104F12800FFF7C0FC4D
:104C88000546EFE701263546236813F0020F17D0D3
:104C9800A36F052B2CD8DFE803F00B05240B0B0BB7
:104CA8002E46F1E7012104F10800FFF725FC05462F
:104CB8000DBB134A536D23F00703A16F0B435365D4
:104CC800236813F0040F30D0D4F89430052B00F289
:104CD8000F81DFE813F01F00190006011F001F00F5
:104CE8001F00012104F12800FFF78AFC0546DFE7D1
:104CF80001263546E4E72E46E2E700BF00480258A1
:104D080000440258CFFFFF00012104F10800FFF71B
:104D1800F3FB0546002D40F0EE80B64A936D23F074
:104D28000703D4F894100B439365236813F0200FFE
:104D38001DD0D4F89030B3F1005F00F0F08000F29D
:104D4800DF804BB1B3F1805F40F0D780002104F1E0
:104D58000800FFF7D1FB0546002D40F0E780A54A83
:104D6800536D23F0E043D4F890100B435365236848
:104D780013F0400F1DD0D4F89C30B3F5006F00F04D
:104D8800E98000F2D8804BB1B3F5806F40F0D08055
:104D9800002104F10800FFF7AFFB0546002D40F0A5
:104DA800E080944A936D23F4E053D4F89C100B43AD
:104DB8009365236813F0800F1DD0D4F8A030B3F5A5
:104DC800804F00F0E28000F2D1804BB1B3F5005F74
:104DD80040F0C980002104F10800FFF78DFB05466B
:104DE800002D40F0D980834A936D23F46043D4F8B2
:104DF800A0100B439365236813F0080F0DD0D4F867
:104E08008430B3F5805F00F0C9807A4A536D23F48B
:104E18004053D4F884100B435365236813F0100FE4
:104E28000DD0D4F89830B3F5807F00F0C180714A76
:104E3800936D23F44073D4F898100B43936523685B
:104E480013F4002F1CD0D4F8A430B3F5803F00F041
:104E5800B980B3F5003F08D0002B40F0BA8000219C
:104E680004F10800FFF748FB0546002D40F0B48028
:104E7800604A936D23F44033D4F8A4100B43936530
:104E8800236813F4802F1CD0D4F88830B3F5001FA2
:104E980000F0A480B3F5401F08D0B3F5801F40F0A0
:104EA800A480544AD36A43F40033D362002D40F0FF
:104EB8009F80504A536D23F44013D4F888100B4355
:104EC8005365236813F4803F00F0AC80236D002BFA
:104ED80000F09280B3F5803F00F09C8001263546B3
:104EE800A0E0012104F12800FFF78AFB054611E73D
:104EF8000126354619E72E4617E70126354636E7D7
:104F0800B3F1804F3FF428AFB3F1A04F3FF424AF83
:104F1800B3F1405F3FF420AF0126354627E7022171
:104F280004F12800FFF76CFB054615E72E461EE73F
:104F3800012635463DE7B3F5805F3FF42FAFB3F563
:104F4800A05F3FF42BAFB3F5406F3FF427AF0126C6
:104F580035462EE7022104F12800FFF751FB0546EC
:104F68001CE72E4625E70126354644E7B3F5004FF2
:104F78003FF436AFB3F5204F3FF432AFB3F5C04F2F
:104F88003FF42EAF0126354635E7022104F128000B
:104F9800FFF736FB054623E72E462CE7022104F1EE
:104FA8002800FFF72DFB00283FF42FAF01262CE740
:104FB800022104F12800FFF723FB00283FF437AF54
:104FC800012634E7022104F12800FFF719FB054602
:104FD8004BE70126354653E72E4651E7012104F1F8
:104FE8002800FFF70DFB054660E70126354668E710
:104FF8002E4666E700440258704AD36A43F40033E9
:10500800D36275B96D4AD36C23F48033216D0B4399
:10501800D36407E0022104F10800FFF76DFA0546A2
:10502800EFE72E46236813F0005F11D1236813F4CD
:10503800003F28D0D4F88030B3F5807F14D010D941
:10504800B3F5007F15D0B3F5407F12D001261AE0E2
:10505800022104F12800FFF7D3FA0028E6D0012640
:10506800E4E733B101260EE0544AD36A43F400332F
:10507800D362002D69D1514A536D23F44073D4F89B
:1050880080100B435365236813F4801F06D04B4AE6
:10509800136D23F00043616F0B431365236813F00E
:1050A800805F07D0454A136923F48043D4F8B810C9
:1050B8000B431361236813F4001F06D03F4A136D96
:1050C80023F08073E16E0B431365236813F0804F60
:1050D80009D03A4B1A6922F400421A611A69D4F8C5
:1050E800BC100A431A612368002B06DA334AD36CD2
:1050F80023F04053616D0B43D364236813F4000F0E
:1051080007D02E4A536D23F44003D4F88C100B4378
:105118005365636813F0010F19D1636813F0020F28
:105128001ED1636813F0040F23D1636813F0080FCE
:1051380028D1636813F0100F2DD1636813F0200F86
:1051480032D106B101263046F8BD2E469BE7002134
:1051580004F10800FFF7D0F90028DED00646DCE7A6
:10516800012104F10800FFF7C7F90028D9D0064645
:10517800D7E7022104F10800FFF7BEF90028D4D0D0
:105188000646D2E7002104F12800FFF739FA002883
:10519800CFD00646CDE7012104F12800FFF730FA09
:1051A8000028CAD00646C8E7022104F12800FFF704
:1051B80027FA0028C5D00126C5E700BF00440258D9
:1051C800774A0023C0E90023764A0023C0E9002378
:1051D800754A0023C0E90023744A0023C0E900236C
:1051E8006FF058520023C0E900236FF0505200239B
:1051F800C0E900236FF010520023C0E900236FF0CC
:1052080080620023C0E90023694B9A6AC2F3055201
:1052180082621A6CC2F308020132C2621A6CC2F3CB
:105228000662013282631A6CC2F3462201320263BB
:105238001A6CC2F3064201324263DA6AC2F381226F
:10524800C263DA6AC2F3402202649A6AC2F3053280
:1052580082609A6BC2F308020132C2609A6BC2F391
:105268000662013282619A6BC2F346220132026100
:105278009A6BC2F3064201324261DA6AC2F38112C2
:10528800C261DA6AC2F3401202625A6D02F0380251
:10529800C2675A6D02F0070282679A6D02F0070230
:1052A800C0F894205A6D02F44052C0F884205A6D18
:1052B80002F0E042C0F890209A6D02F4E052C0F883
:1052C8009C209A6D02F46042C0F8A0201A6D02F08A
:1052D800070282651A6D02F4E072C2659A6D02F4E3
:1052E8006002C0F8A8209A6D02F0E062C0F8AC2015
:1052F8001A6F02F44072C0F8B4205A6D02F44012DA
:10530800C0F88820DA6C02F4803202655A6D02F423
:105318004072C0F880201A6902F48042C0F8B820B0
:105328009A6D02F44032C0F8A4201A6D02F00042CF
:1053380042671A6D02F08072C2661A6D02F440125A
:1053480082661A6D02F4E04202661A6D02F4E022E7
:1053580042669A6D02F0E042C0F8B0201A6D02F081
:10536800405202675A6D02F44002C0F88C20DA6C91
:1053780002F003028264DA6C02F03002C264DA6C72
:1053880002F0405242651B6913F4004F03D1002319
:10539800C0F8BC3070474FF40043C0F8BC307047C9
:1053A800F7F1FFC9FFF1FFC9FFF3FFC9FFF7FFC915
:1053B8000044025808B5FEF773FF054B9B69C3F319
:1053C8000213044AD35C03F01F03D84008BD00BF92
:1053D80000440258743A010808B5FEF761FF054B0E
:1053E8001B6AC3F30213044AD35C03F01F03D840BB
:1053F80008BD00BF00440258743A010810B4794B44
:105408009A6A9C6AC4F3053CD96AC1F30011DB6B44
:10541800C3F3CC0301FB03F314F47C3F00F0DD80FD
:1054280002F0030207EE903AF8EE677A012A4BD0B1
:10543800022A00F09880002A40F0B280694B1B686D
:1054480013F0200F23D067490A68C2F3C102664BE4
:10545800D34007EE103AF8EE476A07EE10CAB8EEE6
:10546800476A86EE867A8B6BC3F3080306EE903A9A
:10547800F8EE666A9FED5D6A67EE867A76EEA77A41
:10548800F7EE006A77EEA67A27EE277A38E007EE7D
:1054980010CAF8EE476A9FED566A86EE267A514B97
:1054A8009B6BC3F3080306EE903AF8EE666A9FED2D
:1054B8004F6A67EE867A76EEA77AF7EE006A77EE9D
:1054C800A67A27EE277A1BE007EE10CAF8EE476A9D
:1054D8009FED486A86EE267A424B9B6BC3F308031E
:1054E80006EE903AF8EE666A9FED406A67EE867AB5
:1054F80076EEA77AF7EE006A77EEA67A27EE277A95
:10550800384A936BC3F3462307EE903AF8EE677A6E
:10551800F7EE006A77EEA67A87EE276ABCEEC66ACF
:1055280080ED006A936BC3F3064307EE903AF8EEFA
:10553800677A77EEA67A87EE276ABCEEC66A80EDB0
:10554800016A936BC3F3066307EE903AF8EE677A45
:1055580077EEA67AC7EE276AFCEEE66AC0ED026A25
:105568005DF8044B704707EE10CAF8EE476A9FEDE6
:10557800226A86EE267A1B4B9B6BC3F3080306EE62
:10558800903AF8EE666A9FED196A67EE867A76EECB
:10559800A77AF7EE006A77EEA67A27EE277AAFE7C2
:1055A80007EE10CAF8EE476A9FED126A86EE267A71
:1055B8000C4B9B6BC3F3080306EE903AF8EE666A51
:1055C8009FED0A6A67EE867A76EEA77AF7EE006AAA
:1055D80077EEA67A27EE277A92E7002303604360E6
:1055E8008360BDE7004402580090D00300000039F2
:1055F8000024744C0024744A20BCBE4B10B4794B70
:105608009A6A9C6AC4F3055CD96AC1F300215B6C91
:10561800C3F3CC0301FB03F314F07C7F00F0DD80BF
:1056280002F0030207EE903AF8EE677A012A4BD0AF
:10563800022A00F09880002A40F0B280694B1B686B
:1056480013F0200F23D067490A68C2F3C102664BE2
:10565800D34007EE103AF8EE476A07EE10CAB8EEE4
:10566800476A86EE867A0B6CC3F3080306EE903A17
:10567800F8EE666A9FED5D6A67EE867A76EEA77A3F
:10568800F7EE006A77EEA67A27EE277A38E007EE7B
:1056980010CAF8EE476A9FED566A86EE267A514B95
:1056A8001B6CC3F3080306EE903AF8EE666A9FEDAA
:1056B8004F6A67EE867A76EEA77AF7EE006A77EE9B
:1056C800A67A27EE277A1BE007EE10CAF8EE476A9B
:1056D8009FED486A86EE267A424B1B6CC3F308039B
:1056E80006EE903AF8EE666A9FED406A67EE867AB3
:1056F80076EEA77AF7EE006A77EEA67A27EE277A93
:10570800384A136CC3F3462307EE903AF8EE677AEB
:10571800F7EE006A77EEA67A87EE276ABCEEC66ACD
:1057280080ED006A136CC3F3064307EE903AF8EE77
:10573800677A77EEA67A87EE276ABCEEC66A80EDAE
:10574800016A136CC3F3066307EE903AF8EE677AC2
:1057580077EEA67AC7EE276AFCEEE66AC0ED026A23
:105768005DF8044B704707EE10CAF8EE476A9FEDE4
:10577800226A86EE267A1B4B1B6CC3F3080306EEDF
:10578800903AF8EE666A9FED196A67EE867A76EEC9
:10579800A77AF7EE006A77EEA67A27EE277AAFE7C0
:1057A80007EE10CAF8EE476A9FED126A86EE267A6F
:1057B8000C4B1B6CC3F3080306EE903AF8EE666ACE
:1057C8009FED0A6A67EE867A76EEA77AF7EE006AA8
:1057D80077EEA67A27EE277A92E7002303604360E4
:1057E8008360BDE7004402580090D00300000039F0
:1057F8000024744C0024744A20BCBE4B10B4794B6E
:105808009A6A9C6AC4F3051CD96A01F001015B6BB2
:10581800C3F3CC0301FB03F314F47C7F00F0DD80B9
:1058280002F0030207EE903AF8EE677A012A4BD0AD
:10583800022A00F09880002A40F0B280694B1B6869
:1058480013F0200F23D067490A68C2F3C102664BE0
:10585800D34007EE103AF8EE476A07EE10CAB8EEE2
:10586800476A86EE867A0B6BC3F3080306EE903A16
:10587800F8EE666A9FED5D6A67EE867A76EEA77A3D
:10588800F7EE006A77EEA67A27EE277A38E007EE79
:1058980010CAF8EE476A9FED566A86EE267A514B93
:1058A8001B6BC3F3080306EE903AF8EE666A9FEDA9
:1058B8004F6A67EE867A76EEA77AF7EE006A77EE99
:1058C800A67A27EE277A1BE007EE10CAF8EE476A99
:1058D8009FED486A86EE267A424B1B6BC3F308039A
:1058E80006EE903AF8EE666A9FED406A67EE867AB1
:1058F80076EEA77AF7EE006A77EEA67A27EE277A91
:10590800384A136BC3F3462307EE903AF8EE677AEA
:10591800F7EE006A77EEA67A87EE276ABCEEC66ACB
:1059280080ED006A136BC3F3064307EE903AF8EE76
:10593800677A77EEA67A87EE276ABCEEC66A80EDAC
:10594800016A136BC3F3066307EE903AF8EE677AC1
:1059580077EEA67AC7EE276AFCEEE66AC0ED026A21
:105968005DF8044B704707EE10CAF8EE476A9FEDE2
:10597800226A86EE267A1B4B1B6BC3F3080306EEDE
:10598800903AF8EE666A9FED196A67EE867A76EEC7
:10599800A77AF7EE006A77EEA67A27EE277AAFE7BE
:1059A80007EE10CAF8EE476A9FED116A86EE267A6E
:1059B8000C4B1B6BC3F3080306EE903AF8EE666ACD
:1059C8009FED0A6A67EE867A76EEA77AF7EE006AA6
:1059D80077EEA67A27EE277A92E7002303604360E2
:1059E8008360BDE7004402580090D00300000039EE
:1059F8000024744C0024744A20BCBE4B00B58BB004
:105A0800A0F580730B432DD0A0F500730B437BD01A
:105A1800A0F580630B4300F0CF80A0F500630B4333
:105A280000F02781A0F580530B4300F08781A0F593
:105A380000530B4300F0DF81A0F500230B4300F077
:105A48002882A0F580330B4300F06B82A0F58043D9
:105A58000B4300F08D82A0F50040084300F0D68289
:105A680000200CE0934B1B6D03F00703042B00F29E
:105A7800F782DFE803F006101A0324008E480BB003
:105A880000BD8C4B186810F00070F8D007A8FFF71D
:105A9800B5FE0898F3E7874B186810F00060EED061
:105AA80004A8FFF7ABFC0498E9E7824B186810F0EC
:105AB8000050E4D001A8FFF7A1FD0198DFE77D4A77
:105AC800D36C03F04053126812F0040F07D033B9B7
